:020000040800F2
:1000000000200020B1050008B1040008B304000876
:10001000B5040008B7040008B90400080000000097
:10002000000000000000000000000000412F000858
:10003000BB04000800000000013000086530000823
:100040000106000801060008010600080106000874
:100050000106000801060008010600080106000864
:100060000106000801060008010600080106000854
:100070000106000801060008010600080106000844
:100080000106000801060008000000000106000843
:100090000106000801060008010600080106000824
:1000A0000106000801060008010600080106000814
:1000B000190A000800000000010600080000000006
:1000C0000106000800000000010600080000000012
:1000D0000000000000000000000000000000000020
:1000E0000000000000000000010600080000000001
:1000F0000000000000000000000000000000000000
:1001000001060008000000000000000000000000E0
:1001100000000000000000000000000000000000DF
:1001200000000000000000000000000000000000CF
:1001300000000000000000000000000000000000BF
:1001400000000000000000000000000001060008A0
:1001500000F1340191E838009C46A6464CF8045D55
:1001600090E8FF0FE54600BD90EC210B704700BF03
:1001700080EC210B704700BF90EC200B704700BF54
:1001800080EC200B704700BFD0EC200B704700BF05
:10019000C0EC200B704700BFF0EC0201F0EC021144
:1001A000F0EC0221F0EC0231F0EC0241F0EC0251F3
:1001B000F0EC0261F0EC0271F0EC0281F0EC0291E3
:1001C000F0EC02A1F0EC02B1F0EC02C1F0EC02D1D3
:1001D000F0EC02E1F0EC02F1704700BFE0EC02014C
:1001E000E0EC0211E0EC0221E0EC0231E0EC024133
:1001F000E0EC0251E0EC0261E0EC0271E0EC028123
:10020000E0EC0291E0EC02A1E0EC02B1E0EC02C112
:10021000E0EC02D1E0EC02E1E0EC02F1704700BF5B
:10022000B0FC0181B0FC0191B0FC01A1B0FC01B1B6
:10023000704700BFA0FC0181A0FC0191A0FC01A1BE
:10024000A0FC01B1704700BFEC4600B52DE900509D
:100250002DE9FF1F4FF000032DE90C0001A903F069
:1002600025F9DDF840E012B0704700BFEC4600B55C
:100270002DE900502DE9FF1F4FF000032DE90C0080
:1002800001A903F04FF9DDF840E012B0704700BF5C
:10029000EC4600B52DE900502DE9FF1F4FF000039B
:1002A0002DE90C0001A903F05FF9DDF840E012B080
:1002B000704700BFEC4600B52DE900502DE9FF1F47
:1002C0004FF000032DE90C0001AB03F023F9DDF83A
:1002D00040E012B0704700BFEC4600B52DE9005079
:1002E0002DE9FF1F4FF000032DE90C0001AA03F0D8
:1002F00093F9DDF840E012B0704700BF034613F8F1
:10030000012B002AFBD1181A013870470348044B0F
:10031000834202D0034B03B11847704758000020B6
:1003200058000020000000000548064B1B1AD90F9A
:1003300001EBA301491002D0034B03B118477047EA
:1003400058000020580000200000000010B5064CA6
:10035000237843B9FFF7DAFF044B13B10448AFF336
:1003600000800123237010BD580000200000000011
:100370003C40000808B5054B1BB105490548AFF3E3
:100380000080BDE80840FFF7CFBF00BF00000000BD
:100390005C0000203C40000802440346934200D128
:1003A000704703F8011BF9E770B50D4D0D4C641B48
:1003B000A4100026A64209D10B4D0C4C03F03EFEC2
:1003C000641BA4100026A64205D170BD55F8043B5D
:1003D00098470136EEE755F8043B98470136F2E7B7
:1003E000904700089047000890470008944700088D
:1003F000002300E00133034A1268B3EB520FF9D334
:10040000704700BF50000020034B0360034B0B609C
:1004100020231360704700BF50030020D00200204B
:10042000034B0360034B0B6032231360704700BF24
:1004300078020020B0010020094BD3F8FC3013F003
:10044000807F06D1064AD2F8FC3043F08073C2F8B0
:10045000FC30044A136843F001031360704700BF87
:1004600000ED00E0001000E0014B5868704700BF4D
:10047000001000E008B50C46FFF7BAFF2346034A18
:100480000349002002F0B0F8F6E700BFFC42000884
:100490006C40000808B5FFF7ABFF034A0349002092
:1004A00002F0A2F8F7E700BFDC4200089040000825
:1004B000FEE7FEE7FEE7FEE7FEE7FEE770B582B087
:1004C00001F036F900F090FD064600F087FD01903E
:1004D00032460949002002F087F800244FF47A716F
:1004E00001A800F003FF651C2346324603490020A3
:1004F00002F07AF82C46F1E7AC400008B84000085A
:1005000000B583B000F06AFD01904FF47A7101A844
:1005100000F0ECFE0A21024800F058FAF5E700BFAF
:10052000C440000810B582B002F064F900F03AFA55
:100530001149002002F052F9002404E00A210F487A
:1005400000F044FA0134042CF8D90024019401236A
:100550000093234680220A490A4800F0A9FC01942E
:1005600002230093234680220749084800F0A0FC9C
:1005700000F0D2FCFEE700BFD0400008C4400008F5
:10058000E0400008BD040008E8400008010500083C
:100590000120704708B503F03DFD162303604FF0BE
:1005A000FF3008BD08B54FF0FF31FFF7F3FFFEE75E
:1005B000DFF834D000F064F80C480D490D4A0023F0
:1005C00002E0D458C4500433C4188C42F9D30A4A08
:1005D0000A4C002301E013600432A242FBD3FFF770
:1005E000E3FEFFF79FFFFEE7002000200000002051
:1005F0005800002098470008580000208013002071
:10060000FEE700001B4B5A685A605A6842F40052D9
:100610005A605A6842F480625A605A6822F0036253
:1006200022F470225A60DA6A22F0404222F00F026D
:10063000DA625A6842F0006242F480225A60DA6A52
:10064000DA621A6842F080721A600A4B1B6813F073
:10065000007FFAD0074B5A6822F003025A605A68AA
:1006600042F002025A60034B5B6813F0080FFAD0A5
:10067000704700BF0010024008B5FFF7C3FF08BD78
:1006800010B582B0664BDB6903F00603062B50D031
:10069000634BDB6913F4005F4BD0614B61495960D8
:1006A000614A5A6099609A601A6942F020021A61A0
:1006B0001A6942F040021A61594BDB6813F0010FCE
:1006C000FAD1574B1A6922F020021A611A6942F0D6
:1006D00010021A61DB6913F0060F43D1534BA522B8
:1006E0001A804F4AD169C1F3072101F0DF014F4B56
:1006F0005980D169C1F307419980D169090ED98028
:10070000116AC9B21981126AC2F307225A81444B95
:10071000DB6813F0010FFAD1414B1A6922F0100285
:100720001A611A6922F400721A611A6942F0800291
:100730001A613F4AD2F8883043F47003C2F8883017
:100740003C4A136843F0010313603A4B1B6813F0F3
:10075000020FFAD0374A536843F0800353600023F6
:1007600001930CE02E4BDB6903F00603022BB8D19A
:100770002E4BBB221A80B4E7019B01330193019BEE
:100780004F2BF9D92B4A536843F090035360002351
:10079000019302E0019B01330193019B4F2BF9D997
:1007A000244B5A6822F003025A601A6822F08672BB
:1007B00022F480321A6059681F4A0A405A605A6807
:1007C00022F0084222F474125A60DA6A22F040429F
:1007D00022F00F02DA621A6B22F4817222F0010217
:1007E0001A631A6B22F480321A631A6B22F00042E9
:1007F0001A635A6B22F001025A63D3F8C02022F424
:100800008032C3F8C02000249C60C3F8CC40FFF7BE
:1008100033FF21464FF0006002F072F902B010BDC4
:100820000020024023016745AB89EFCD00F8FF1F90
:1008300000ED00E0001002400C00FF0808B5024681
:100840000B460249002001F0CFFE08BDF040000831
:1008500008B540F2115002F05FF9042201214FF077
:10086000904002F0DAF8082201214FF0904002F0A7
:10087000D4F80423012202214FF0904002F074F8D2
:100880000423012200214FF0904002F08FF808234A
:10089000012202214FF0904002F066F80823012265
:1008A00000214FF0904002F081F808BD10B540F2F1
:1008B000117002F031F9144C204602F017FA0021B1
:1008C000204602F065FA0021204602F06DFA002170
:1008D000204602F051FA4FF4E131204602F022FAAC
:1008E0000421204602F079FA0821204602F06DFA30
:1008F0008021204602F083FA4021204602F075FA5A
:10090000204602F05DFA10BD0044004030B589B0C9
:100910004FF4A06002F000F9032001F06FFF684679
:1009200001F088FF01258DF81550002403948DF8FF
:10093000145004940694194B00938DF808400194C8
:100940004FF4005307936946032001F0A5FF0320ED
:1009500001F07AFF032001F081FF032001F092FFF4
:10096000684601F067FF8DF8154003948DF8145028
:10097000049406940A4B00938DF8084001944FF4B8
:10098000405307936946042001F086FF042001F0DC
:100990005BFF042001F06CFF09B030BD284400402B
:1009A0002444004008B5002201211C2002F066F812
:1009B000FFF74EFFFFF77AFFFFF7A8FF40F2047141
:1009C000014802F02EFA08BD0044004038B5054643
:1009D0000C46032001F056FF0121032001F0BAFF6D
:1009E0002946032001F092FF2146032001F096FFE3
:1009F00040F20771074802F00CFA0028F8D00320F3
:100A000001F036FF0221032001F098FF0028F9D001
:100A100038BD00BF0044004070B51249124802F0D2
:100A200008FA00B970BD0F490F4802F017FA0F4BD2
:100A30005E6E0F4D2C68042001F078FF201A0D4BDC
:100A400018600130002333540B4B01221A6004203C
:100A500001F018FF2968042001F060FF042001F074
:100A600007FFDFE7040004070044004000000240E5
:100A7000A8030020AC030020B0030020074B1B6834
:100A80001B6823B9064B4FF0FF321A607047034BC7
:100A90001B68DB681A68024B1A6070472C04002040
:100AA000C40300202DE9F04780460D4617469946BD
:100AB000089EDDF824A00A9C9200A521206BFFF778
:100AC0006BFC236B07F18042013A03EB820727F0AE
:100AD00007078DB14FF0000CBCF10F0F09D815F8C6
:100AE0000C3004EB0C0282F8343013B10CF1010C21
:100AF000F2E7002384F843300F2E1AD8E6626664CA
:100B0000201D01F040F904F1180001F03CF92461C6
:100B1000C6F11006A66164624A464146384602F0B4
:100B2000F7F92060BAF1000F01D0CAF80040BDE823
:100B3000F0874FF0500383F31188BFF36F8FBFF33B
:100B40004F8F40F292310248FFF778FE0F26D5E72B
:100B50001841000838B5002407E004EB8402930034
:100B60000E48184401F004F901340F2CF5D90C4D4E
:100B7000284601F0FDF80B4C204601F0F9F80A4830
:100B800001F0F6F8094801F0F3F8094801F0F0F82F
:100B9000084B1D60084B1C6038BD00BF5804002086
:100BA000440400203004002014040020000400202D
:100BB000E80300202C0400202804002010B504467F
:100BC00002F0D0F9284A136801331360274B1B68E1
:100BD0005BB1274B1B686BB9244B1B68DA6AE36A6D
:100BE0009A4207D8214B1C6004E0204B1C6013681C
:100BF000012B36D01F4A136801331360E36A0122C8
:100C00009A401D49086802430A601C4A03EB8303AB
:100C100002EB83035B68A3609868E060211D41607C
:100C20009960E36A03EB8301880002EB8101616153
:100C300011580131115002F0BFF90D4B1B687BB107
:100C40000A4B1B68DA6AE36A9A4209D24FF0E02342
:100C50004FF08052C3F8042DBFF34F8FBFF36F8F57
:100C600010BDFFF777FFC5E7E403002098050020DB
:100C7000D8030020C8030020DC0300205804002013
:100C800010B5044690F855308BB1012B16D0022BCD
:100C900013D04FF0500383F31188BFF36F8FBFF36E
:100CA0004F8F40F695710748FFF7C8FD05E0006BD0
:100CB00001F00AF8204601F007F810BD01F004F831
:100CC000FBE700BF184100080F4B1B68D3B110B5FC
:100CD00002F048F90D4BDB68DC68201D01F06FF86D
:100CE0000B4A1368013B1360074A1368013B13600A
:100CF00002F062F92046FFF7C3FF034B1B68002B8D
:100D0000E6D110BD704700BFFC03002000040020A6
:100D1000E403002008B5FFF7D7FF074B1B68012B42
:100D2000F9D94FF0E0234FF08052C3F8042DBFF300
:100D30004F8FBFF36F8FEEE75804002070B5044665
:100D40000D46234B1E68234B1868043001F037F81A
:100D500048B9204B1B68DB6A01229A401E490B6888
:100D600023EA02030B60B4F1FF3F0DD03444194B6A
:100D70001B685C60A6421DD9184B1868154B196892
:100D8000043101F003F870BD002DEFD0144A516812
:100D9000104B1868816018688C68C460186804304B
:100DA00060601868043088601B685A6113680133FA
:100DB0001360E8E70B4B1868064B1968043100F024
:100DC000E5FF094B1B68A342DDD9074B1C60DAE73E
:100DD000E003002098050020DC0300202804002008
:100DE000E80300202C040020C40300202DE9F04378
:100DF00087B081460E46174698460F9D109C2DB32E
:100E0000002C31D058220492049A582A3AD1049BDB
:100E1000002C45D0002D43D0582200212046FFF75A
:100E2000BBFA2563022384F8553000230393029410
:100E300005AB01930E9B009343463A463146484624
:100E4000FFF730FE2046FFF7B9FE2BE04FF05003CE
:100E500083F31188BFF36F8FBFF34F8F40F23F21B1
:100E60001248FFF7EBFCCBE74FF0500383F31188F8
:100E7000BFF36F8FBFF34F8F4FF410710B48FFF725
:100E8000DDFCBFE74FF0500383F31188BFF36F8F92
:100E9000BFF34F8F4FF412710448FFF7CFFCB6E752
:100EA00000230593059807B0BDE8F08318410008BA
:100EB0002DE9F04385B00746884614461E4690004B
:100EC00000F070FE18B38146582000F06BFE054616
:100ED000B8B158220021FFF75FFAC5F8309000231F
:100EE000039302950D9B01930C9B0093334622467E
:100EF00041463846FFF7D6FD2846FFF75FFE012042
:100F000007E0484600F0E0FE4FF0FF3001E04FF010
:100F1000FF3005B0BDE8F08310B588B0002405941B
:100F2000069407AA06A905A8FFF76EFA059B029387
:100F3000069B019300942346079A1C491C48FFF71F
:100F400055FF1C4B1860D0B100F094FD012817D15B
:100F50004FF0500383F31188BFF36F8FBFF34F8FB0
:100F6000154B4FF0FF321A60144B01221A60144BDC
:100F700000221A60FFF760FA02F09EF803E00020FA
:100F8000B0F1FF3F03D00F4B1B6808B010BD4FF00E
:100F9000500383F31188BFF36F8FBFF34F8F40F679
:100FA00012010948FFF74AFCEDE700BF6441000861
:100FB000150D0008C0030020C4030020D803002042
:100FC000E00300201C43000818410008024A13688F
:100FD00001331360704700BFBC030020014B186849
:100FE000704700BFE003002010B5044610B104F1C3
:100FF000340010BD084B1C68002CF8D14FF0500392
:1010000083F31188BFF36F8FBFF34F8F40F62B111F
:101010000248FFF713FCEAE7980500201841000892
:10102000F8B54F4B1B68002B40F093804D4B1C686C
:1010300001341C607CB94C4B1B681B68B3B94A4A2D
:1010400011684A4B186810601960494A13680133E7
:101050001360FFF713FD474B1B68A34214D9002010
:10106000454B1B68002B79D0012077E04FF05003EF
:1010700083F31188BFF36F8FBFF34F8F40F6B72113
:101080003E48FFF7DBFBDAE7002037E0394B4FF053
:10109000FF321A60E4E7374B1A60E1E7D968516024
:1010A00042E000219962116801391160DA6A012178
:1010B0009140334E376839433160324902EB820246
:1010C0004FEA820C8C44DCF804209A609668DE605B
:1010D00075609560DA6A02EB820C4FEA8C056E1837
:1010E0005E614D5901354FEA8C0C41F80C50DA6ABB
:1010F000254B1B68DB6A9A4200D901201A4B1B68FA
:101100001B68002BC2D0184B1B68DB68DB685A6871
:101110009442C0D35A699D68D968A9609D684D60A2
:1011200051681D1DA942B9D00021596111680139CA
:1011300011609A6A002AB9D0DE69196AB160DE6965
:101140004E60566803F118018E42AAD1196A5160A7
:10115000A7E70E4A1368013313600020F8BD00BFF3
:10116000BC030020E00300202C0400202804002001
:10117000CC030020C4030020D00300201841000845
:10118000DC0300205804002098050020D403002030
:1011900038B54D4B1B6873B101F0E4FE4A4B1A6839
:1011A000013A1A601B68002B40F08980474B1B688E
:1011B000ABB9002484E04FF0500383F31188BFF3F0
:1011C0006F8FBFF34F8F40F685014148FFF736FB25
:1011D000E2E7196A516015E0D968516021E0002307
:1011E0003C4A1268002A47D03A4BDB68DB689A6AAF
:1011F000D869196A8160D8694860506803F118019C
:101200008842E6D0002199621168013911605A695B
:101210009868D9688160986848605168181D814253
:10122000DAD000215961116801391160DA6A0121AF
:101230009140294C256829432160284902EB82020C
:1012400001EB820252689A609468DC606060906092
:10125000DA6A02EB8200840001EB800058610859D1
:1012600001300851D96A1E4A1268D26A9142B7D336
:101270001C4A01211160B3E70BB1FFF7FFFB1A4BCA
:101280001C6884B9174B1C68D4B14FF0E0234FF0B1
:101290008052C3F8042DBFF34F8FBFF36F8F01242B
:1012A0000EE0013C07D0FFF7BBFE0028F9D00D4B44
:1012B00001221A60F5E70C4B00221A60E2E70024D5
:1012C00001F07AFE204638BDBC030020E403002074
:1012D0001841000814040020DC03002058040020FA
:1012E00098050020D0030020D403002038B50C4618
:1012F000054680B1ECB12E4B1B6843BBFFF766FE81
:101300002C4B18682A681444824235D9A2422CD842
:101310002C6000243AE04FF0500383F31188BFF3B0
:101320006F8FBFF34F8F40F2C4412348FFF786FA17
:10133000E0E74FF0500383F31188BFF36F8FBFF3E3
:101340004F8F40F2C5411C48FFF778FAD3E74FF0C2
:10135000500383F31188BFF36F8FBFF34F8F40F2B9
:10136000C6411548FFF76AFAC8E7A04202D32C60CD
:1013700000240BE02C6004E0A24201D8A04214D269
:101380002C600021201AFFF7D9FC0124FFF700FF91
:1013900048B94FF0E0234FF08052C3F8042DBFF35B
:1013A0004F8FBFF36F8F204638BD2C600024EDE7D0
:1013B000BC030020E0030020184100083A4B1B68E2
:1013C0001BB13A4B01221A60704710B5374B00220F
:1013D0001A60FFF749F8364B18601A68354B1B68DE
:1013E0009A4207D9324A1268D21A334B1968CB6C29
:1013F0001344CB642E4B1A682E4B1A602E4B1B687D
:101400001B6B1A68B2F1A53F03D15A68B2F1A53F30
:101410002BD0294B186819683431FFF72BF8274B6C
:101420001C68B4FA84F4E4B2C4F11F0404EB84032E
:101430009B00234AD3580BB3214904EB840301EBEF
:1014400083035A6852685A6004EB84039B00083394
:101450000B449A4220D004EB8404194B03EB840321
:101460005B68DA68144B1A6010BD9A68B2F1A53F48
:10147000CFD1DB68B3F1A53FCBD1D0E74FF050031C
:1014800083F31188BFF36F8FBFF34F8F40F6F631B0
:101490000C48FFF7D3F9CFE7516804EB8402084BFF
:1014A00003EB82035960D6E7BC030020D003002081
:1014B000B4030020B803002098050020DC030020BE
:1014C000580400201841000838B50C46054650B1B4
:1014D0000C4B19681831284600F058FC01212046B1
:1014E000FFF72CFC38BD4FF0500383F31188BFF396
:1014F0006F8FBFF34F8F40F60E410348FFF79EF901
:10150000E6E700BF980500201841000870B50E46B8
:1015100014460546C8B16A68134B1968CA61196850
:101520009068086219681831416019681831916033
:101530001B689D622B6801332B600CB14FF0FF36A6
:1015400021463046FFF7FAFB70BD4FF0500383F39E
:101550001188BFF36F8FBFF34F8F40F644410348AC
:10156000FFF76CF9D7E700BF980500201841000885
:1015700038B5C368DC68002C48D0A36AE169226AE8
:101580008A60E16951605A6804F118018A424BD0BF
:101590000022A2621A68013A1A602D4B1B68002BC8
:1015A00048D16369A168E2688A60A16851605A689D
:1015B000211D8A423BD0002262611A68013A1A60FA
:1015C000E36A01229A40234805682A430260224ABE
:1015D00003EB830302EB83035B68A3609868E0601E
:1015E00041609960E36A03EB8301880002EB8101AB
:1015F0006161115801311150E26A184B1B68DB6AB6
:101600009A4223D90120164B186038BD4FF0500381
:1016100083F31188BFF36F8FBFF34F8F40F6744190
:101620001048FFF70BF9A8E7226A5A60B0E7E268B2
:101630005A60C0E70C4B5A68E261906820624160D2
:101640009160A3621A6801321A60D5E70020DCE7D6
:10165000BC030020DC030020580400209805002073
:10166000D00300201841000814040020034B1B681D
:101670000360034B1B684360704700BFCC0300202E
:10168000E0030020F8B50C460546A8B114B301F0FC
:1016900069FC214B19686B68C81A2268B2F1FF3FD8
:1016A00034D01E4E36682F68B74221D08B421FD8E7
:1016B0000023236001242AE04FF0500383F31188B4
:1016C000BFF36F8FBFF34F8F40F6EF411448FFF722
:1016D000B5F8DBE74FF0500383F31188BFF36F8F4A
:1016E000BFF34F8F4FF44F610D48FFF7A7F8CEE7D8
:1016F000824203D800232360012408E05B1A1344CC
:1017000023602846FFF7B2FF002400E0002401F028
:1017100053FC2046F8BD00BFE0030020CC030020AE
:1017200018410008014B01221A607047D0030020C5
:10173000014B1868704700BF98050020054B1B68D7
:1017400033B1054B1B680BB1002070470220704776
:1017500001207047D8030020BC030020064B1A6804
:1017600013682BB90123036023B9D3681868704745
:101770000023F8E7002070476C06002008B54160A0
:10178000006191420CD8D21A83699A4201D3012098
:1017900008BD011D094B186800F0F8FA0020F7E7B2
:1017A0009A4201D2994206D2011D054B186800F0F9
:1017B000EDFA0020ECE70120EAE700BF6806002010
:1017C0006C06002070B504460D46164604E0A36979
:1017D0001D44236A20469847A1692B463246294476
:1017E0002046FFF7CBFF0028F1D170BD70B505464C
:1017F0000E460D4B1B68DB68DC68201D00F0DFFA2D
:1018000094F8243013F0040F07D123F0010384F877
:101810002430236A2046984770BD32462946204628
:10182000FFF7D0FFF5E700BF6C06002008B505E024
:10183000DB684FF0FF311868FFF7D8FF054B1B68D6
:101840001A68002AF4D1044A10680249086013603B
:1018500008BD00BF6C0600206806002038B50546AC
:10186000FFF7BCFB0446074B1B68834205D80023E7
:101870002B60044B1C60204638BDFFF7D7FF0123C7
:101880002B60F6E75C06002070B582B006460C4679
:10189000FFF79CFB01A8FFF7E1FF019B33BB054667
:1018A000E4B9B04213D22246711B124B186800F003
:1018B0006DFCFFF76DFCD8B94FF0E0234FF080527C
:1018C000C3F8042DBFF34F8FBFF36F8F10E0FFF706
:1018D0005FFC29463046FFF789FF09E0064A126897
:1018E00012680AB90124DEE71C46DCE7FFF750FC6A
:1018F00002B070BD640600206806002030B585B0D7
:10190000002201A93B4B186800F082FB00286FD031
:10191000019B002BF4DB039C636913B1201D00F0D5
:101920004EFA6846FFF79AFF0546019B013B082BDC
:10193000E6D8DFE803F0050529304F05052930001A
:1019400094F8243043F0010384F82430029BA16909
:10195000024619442046FFF711FF0028D0D094F822
:10196000243013F0040F07D123F0010384F824304E
:10197000236A20469847C3E7A3692A460299194477
:101980002046FFF71FFFF3E794F8243023F001030C
:1019900084F82430B4E794F8243043F0010384F849
:1019A0002430029BA3613BB1A1692B462A462944FE
:1019B0002046FFF7E3FEA3E74FF0500383F31188BF
:1019C000BFF36F8FBFF34F8F40F25E310A48FEF7CF
:1019D00035FFE9E794F8243013F0020F04D023F028
:1019E000010384F824308BE7204600F06DF987E787
:1019F00005B030BD640600206C41000800B583B01E
:101A000001A8FFF7ABFE0199FFF73EFFFFF776FF56
:101A1000F6E7000030B583B001F0A4FA0E4B1B6866
:101A20001BB101F0C9FA03B030BD0C4D284600F0DF
:101A30009FF90B4C204600F09BF90A4B1D600A4BA6
:101A40001C6000230093094B094A0C210A2000F076
:101A500091FA014B1860E4E7640600208406002038
:101A6000700600206C060020680600209C050020FF
:101A7000E405002010B588B0FFF7CCFF154B1B68BC
:101A8000C3B100240594069407AA06A905A8FEF789
:101A9000C7FC059B0293069B01930F2300932346EB
:101AA000079A0D490D48FFF7A1F90D4B186008B1D1
:101AB00001200DE04FF0500383F31188BFF36F8FC7
:101AC000BFF34F8F40F219110648FEF7B7FE002012
:101AD00008B010BD64060020B8410008FD190008D8
:101AE000600600206C410008104A12F0070F1AD05F
:101AF000D11D21F00701C1F5406313440A460C488B
:101B00000260002141601344083B23F007030948A9
:101B1000036059601960991A51601360064B19608F
:101B2000064B196070474FF44063E8E7B4060020A5
:101B3000AC060020A8060020A0060020A406002075
:101B4000164B1A461B688342FBD3516802EB010C0B
:101B5000844509D0416800EB010C634509D003605E
:101B6000904219D01060704740680144516010469F
:101B7000F0E710B40A4C2468A3420BD05B68194408
:101B8000416013681B680360904200D010605DF8EC
:101B9000044B70470460F7E7704700BFAC060020B5
:101BA000A8060020F8B50546FFF710FA404B1B6861
:101BB0006BB185B105F00703C3F11002113BAB42D5
:101BC00008D3AD1807D5FFF7E3FA00260EE0FFF7BC
:101BD0008BFFEEE7002535B1364B1B68AB420CD3CB
:101BE000354A14680FE0FFF7D3FA0026FEF752FCDF
:101BF00016F0070F4ED13046F8BDFFF7C9FA0026A0
:101C0000F4E722461C466368AB4202D22368002BED
:101C1000F7D1274B1B68A3422BD0166808362368E0
:101C2000136063685B1B102B0AD9671917F0070F45
:101C300023D163685B1B7B6065603846FFF780FFDC
:101C400062681C490B689B1A0B601C4909688B422F
:101C500001D21A490B6042F0004262600023236007
:101C6000174A136801331360FFF792FA002EBFD1B1
:101C7000BCE7FFF78DFA0026B8E74FF0500383F377
:101C80001188BFF36F8FBFF34F8FDC210D48FEF734
:101C9000D5FDCEE74FF0500383F31188BFF36F8F6C
:101CA000BFF34F8F4FF48E710648FEF7C7FDA2E7D2
:101CB000A8060020A4060020AC060020A0060020F4
:101CC0009C060020C0410008002849D038B50446D1
:101CD000A0F1080550F8043C002B14DA54F8083C35
:101CE00063B14FF0500383F31188BFF36F8FBFF3DD
:101CF0004F8F4FF498711B48FEF7A0FD54F8042C49
:101D0000002A0EDB38BD4FF0500383F31188BFF378
:101D10006F8FBFF34F8F40F22F111248FEF78EFDE9
:101D2000DCE754F8083C002BECD122F0004244F8E8
:101D3000042C083A00212046FEF72EFBFFF746F957
:101D400054F8041C084A13680B4413602846FFF734
:101D5000F7FE064A136801331360FFF719FAD1E75B
:101D6000704700BFC0410008A4060020980600206C
:101D700000F1080343604FF0FF328260C3600361EB
:101D800000230360704700230361704730B40D687F
:101D9000B5F1FF3F11D000F108031C465B681A68DB
:101DA000AA42FAD963684B6099608C6061600861EF
:101DB00003680133036030BC70470469F2E70369CC
:101DC000416882688A60416851605A68824206D0E0
:101DD000002202611A68013A1A6018687047826826
:101DE0005A60F5E710B5044601F0BCF8A36B23B9BF
:101DF000012401F0E1F8204610BD0024F9E7034674
:101E0000026C6AB110B50846D9681144D9609C6863
:101E1000A14201D31968D960D96802F001F910BD57
:101E2000704738B5054601F09DF895F8454064B215
:101E300001E0013C64B2002C0ADD6B6A43B105F19C
:101E40002400FFF795FB0028F3D0FFF76BFCF0E7C9
:101E5000FF2385F8453001F0AFF801F083F895F8DD
:101E6000444064B201E0013C64B2002C0ADD2B69FD
:101E700043B105F11000FFF77BFB0028F3D0FFF71B
:101E800051FCF0E7FF2385F8443001F095F838BDA8
:101E900038B590B10D460446C36BE3B94FF050031B
:101EA00083F31188BFF36F8FBFF34F8F40F263113D
:101EB0002848FEF7C3FC002038BD4FF0500383F3E1
:101EC0001188BFF36F8FBFF34F8F4FF49771214885
:101ED000FEF7B4FCE2E7026C0021A2FB0323E3B9A6
:101EE0000029DBD101F03EF82368E26B216C01FB95
:101EF0000230A0600020A0636360013A02FB01335E
:101F0000E360FF2384F8443084F84530C5B9236981
:101F10002BB901F051F80120CEE70121E0E704F1EF
:101F20001000FFF725FB0028F3D04FF0E0234FF01F
:101F30008052C3F8042DBFF34F8FBFF36F8FE8E7D4
:101F400004F11000FFF714FF04F12400FFF710FF65
:101F5000DFE700BF1C42000810B5034602980C469C
:101F600031B90060C36304640121FFF791FF10BD24
:101F70000260F7E7F0B585B005460F4616461C46E9
:101F8000BBB135B32CB316B31FB348230393039BE4
:101F9000482B2DD1039B012384F8463000949DF8F3
:101FA0002830324639462846FFF7D6FF204605B08E
:101FB000F0BD4FF0500383F31188BFF36F8FBFF371
:101FC0004F8F40F277111148FEF738FCD9E7002F08
:101FD000DBD04FF0500383F31188BFF36F8FBFF353
:101FE0004F8F4FF4D0710948FEF728FC0020DEE740
:101FF0004FF0500383F31188BFF36F8FBFF34F8F00
:1020000040F289110148FEF719FCC3E71C420008A1
:10201000F0B585B00F460192044638B1A7B1FFF77D
:102020008DFB08B9019B03BB00266BE04FF050030A
:1020300083F31188BFF36F8FBFF34F8F40F26B5163
:102040005148FEF7FBFBE9E7236C002BE7D04FF08C
:10205000500383F31188BFF36F8FBFF34F8F40F2AC
:102060006F514948FEF7EAFBD9E74FF0500383F37D
:102070001188BFF36F8FBFF34F8F40F27451424806
:10208000FEF7DCFBD0E739462046FFF7B8FE013DFE
:10209000A563236923B900F08FFF012005B0F0BDCF
:1020A00004F11000FFF764FA0028F4D04FF0E023A9
:1020B0004FF08052C3F8042DBFF34F8FBFF36F8FE3
:1020C000E9E700F079FF0020E8E702A8FFF7CEFA81
:1020D000012621E0002384F8443029E0002384F81D
:1020E00045302BE02046FFF79CFEFFF751F809E052
:1020F0002046FFF796FEFFF74BF82046FFF772FEEB
:1021000000283FD100F02EFFA56B002DBBD1019B15
:10211000002BD6D0002ED8D000F04EFFFEF756FF91
:1021200000F020FF94F844305BB2B3F1FF3FD1D010
:1021300094F845305BB2B3F1FF3FCFD000F03CFFE5
:1021400001A902A8FFF79EFA0028D1D12046FFF787
:1021500049FE0028C6D0019904F12400FFF7B4F924
:102160002046FFF75EFEFFF713F80028CAD14FF0B4
:10217000E0234FF08052C3F8042DBFF34F8FBFF31D
:102180006F8FBFE7002089E71C42000870B5044646
:102190000D46164600F0E6FE94F844305BB2B3F10B
:1021A000FF3F0DD094F845305BB2B3F1FF3F0BD049
:1021B00000F002FFA36B5BB12046FFF732FE70BD5B
:1021C000002384F84430EDE7002384F84530EFE73E
:1021D0003246294604F12400FFF798F9ECE710B5E0
:1021E00004468268531C4068834205D820688154A5
:1021F000A360E3680133E360A26863689A4200D099
:1022000010BD2168206900F0CDFAA368984203D080
:102210004FF0FF33E360F3E70023A360F0E7000033
:102220002DE9F84F81460F4615461E46DDF828A0D9
:102230000B9A0B464FF0010803E0B3FBF5F308F1EE
:102240000108AB42F9D2B04500D2B04612F0010B02
:1022500018D1BAF1000F15D012F0020F02D0BEB1A2
:10226000202400E02024BAF1000F0BD0C24509D988
:102270000AF1FF3A21464846FFF7B1FFD9F80C3082
:10228000002BF0DAD9F80C30002B25DB012404E018
:102290003024E8E7013E05FB04F4012EFAD8B7FB31
:1022A000F4F39D42F7D900E01C46B7FBF4F304FBBE
:1022B0001377124AD15C4846FFF791FFD9F80C30EA
:1022C000002B03DBB4FBF5F3AC42EDD2BBF1000F06
:1022D00002D0BAF1000F01D1BDE8F88FBAF1000FBA
:1022E000FAD0C245F8D90AF1FF3A20214846FFF753
:1022F00076FFD9F80C30002BF0DAEDE72043000828
:102300002DE9F04782B007468846154699460A9E51
:10231000DDF82CA081EAE17CACEBE17C012402E059
:102320009CFBF5FC01346545FADD4C4500D24C467A
:1023300036B1B8F1000F02DB1AF0040F00D0013EF5
:102340001AF0020F02D0B9F1000F03D01AF0010FFA
:1023500000D1AEB9FB68002B0FDBB8F1000F1CDB1E
:102360001AF0040F20D1FB68002B06DB0AF00303F0
:10237000022B1ED0FB68002B2DDA02B0BDE8F087DF
:10238000002EE7D0A642E5D9013E20213846FFF7CE
:1023900026FFFB68002BF3DADCE7C8F100082D21EB
:1023A0003846FFF71CFFDEE72B213846FFF717FF03
:1023B000D9E7B9F1000FDDD1002EDBD0002ED9D046
:1023C000A642D7D9013E30213846FFF708FFFB6807
:1023D000002BF3DACEE7CDF804A000964B462A4650
:1023E00041463846FFF71CFFC7E70000F0B599B03B
:1023F00006460C46154603AB139340231493002363
:102400001593179016938BE00020012211E040F005
:10241000010001340CE040F00200013408E040F01B
:102420000400013404E040F00800013400E0002220
:1024300012B32378233B0D2BF9D801A151F823F0D7
:10244000272400082F2400082F2400082F24000828
:102450002F2400082F2400082F2400082F24000810
:102460001F2400082F2400080F2400082F24000830
:102470002F240008172400082378A3F13001C9B2E3
:10248000092907D8013402EB820203EB4203A3F1CE
:102490003002F1E72E2B02D00023217814E0013422
:1024A000002306E0013403EB830301EB4301A1F1B8
:1024B00030032178A1F1300C5FFA8CFCBCF1090FDC
:1024C000F0D9EAE714F8011F6C29FBD06829F9D08C
:1024D000252970D020D378291ED858291CD35839E3
:1024E000202919D8DFE801F03D1818181818181815
:1024F0001818181127181818181818181818181854
:102500005A181848183218183D002B681A1D2A60EE
:10251000197813A8FFF763FE0134169B002B4FDBDD
:1025200014F8011B00294BD025293FF46DAF13A8E7
:10253000FFF755FEF1E729680F1D2F60096801902C
:1025400000920A2213A8FFF7DBFEE5E729680F1DBA
:102550002F600968019000920A2213A8FFF760FE1D
:10256000DAE729680F1D2F60096801900092102298
:1025700013A8FFF755FECFE72B681A1D2A601F68C6
:1025800057B117F8011B0029C6D013A8FFF727FE83
:10259000169B002BF5DABFE7124FF2E72B681A1DE6
:1025A0002A6019680023019308230093102213A8BE
:1025B000FFF736FEB0E7252113A8FFF710FEABE7C3
:1025C000169B002B05DD159A32B9169B159A1344FC
:1025D0001693169819B0F0BD03A9304600F0E2F842
:1025E000F3E700BF684200080EB400B582B003AB49
:1025F00053F8041B019301AAFFF7F8FE02B05DF83F
:1026000004EB03B070470369C268934204D8816841
:102610008A1A1344581E7047981A013870472DE9DA
:10262000F843044688461646C5688768A7EB05093F
:10263000914509D94068284401F0F2FCBFF35F8F4F
:102640003544E560BDE8F88340684A46284401F017
:10265000E7FCED1B35442A4608EB0901606801F0F0
:10266000DFFCBFF35F8FE560ECE72DE9F84306463A
:1026700088461746C5684FF000091AE05B1B5A1ED2
:10268000B3685C1B944228BF1446BC4228BF3C463A
:10269000706822464146284401F0C2FCA144A0448F
:1026A0003F1B2544B368AB420BD0BFF35F8FF5608F
:1026B0004FB133699D42E1D3B2685B1B1A44013AC2
:1026C000DEE70025F1E74846BDE8F88310B5154C74
:1026D000482200212046FDF75FFE0123236163614C
:1026E000114AA261114BE361782323620023A362A4
:1026F0006362E36222630E4A62630422A26323647C
:10270000E3636364BFF35F8F06E0C3F10F0209491F
:10271000895C044AD15401330F2BF6D9BFF35F8F84
:1027200010BD00BF3013002070420008B812002016
:10273000B412002030430008F8B50F461646441C7A
:1027400004EB4404164B03EBC40400EB400003EB22
:10275000C003DD6A012D0ED0022D1AD0F5B9204636
:10276000FFF751FF864212D8324639462046FFF71E
:1027700056FF35460BE02046FFF745FF35468642BB
:1027800028BF05462A4639462046FFF748FF284617
:10279000F8BD2046FFF769FF0546F8E70025F6E794
:1027A00030130020F8B504460D4616460A4B1B7838
:1027B000DBB2532B0DD1EFF311874FF0200181F3E2
:1027C0001188324629462046FFF7B6FF87F3118865
:1027D000F8BDFFF77BFFEEE73013002038B5054664
:1027E0000C460846FDF78AFD024621462846FFF7BB
:1027F000D9FF38BD08B5FFF769FF08BD142343436F
:102800000A495A5822F001025A5000225A50043103
:1028100080005A5004315A5004315A50044A0F2350
:10282000516883400B435360704700BF080002406B
:10283000000002400023C0E90033C0E90333037203
:1028400083618382C36170471423034A58438358CA
:1028500023F0200383507047080002401423034AEA
:102860005843835823F48043835070470800024044
:102870001423034A5843835843F00103835070479D
:10288000080002401423034A5843835823F00103ED
:10289000835070470800024038B50446FFF7F2FF46
:1028A000142303FB04F0184B0A68C2500433CA68AF
:1028B000C250083B0A8BC250043B0D694A68C45899
:1028C0002A43CD6924F47C542A432243C2500A7A15
:1028D000012AC2580CBF42F0400222F04002C2500E
:1028E0000A7D012AC2580CBF42F0800222F0800209
:1028F000C2504A7D22B9C25822F01002C25038BDDF
:10290000C25842F01002F9E7100002401423584365
:1029100003F1804303F50033C1507047142358433B
:10292000014B89B2C15070470C0002401423584338
:10293000014BC058704700BF0C000240044B8000A0
:102940001B688140194214BF01200020704700BF5E
:1029500000000240034B80005A68814011435960D7
:10296000704700BF000002402DE9F0430568C468CD
:1029700000264FF0010E4FF003080EFA06F71F4233
:102980000DD0770008FA07FC01FA07F925EA0C05D3
:1029900024EA0C0402FA07F749EA05053C4301362C
:1029A000102EEAD10560C460BDE8F08301294168BA
:1029B000F0B50CBF194399434FF6FF744160A24232
:1029C000816815D1C46B002201274FF0030C07FA70
:1029D00002F61E421CBF55000CFA05F502F1010279
:1029E0001CBF29433443102AF1D18160C463F0BD78
:1029F000002401274FF0030C07FA04F51D4207D00D
:102A000065000CFA05F621EA060102FA05F52943EC
:102A10000134102CF0D18160E9E7F0B5066A456A0F
:102A200000234FF0010C4FF00F0E0CFA03F4144288
:102A300007D09C000EFA04F726EA070601FA04F410
:102A400026430133082BF0D100234FF0010C4FF047
:102A50000F0E03F108040CFA04F4144207D09C0092
:102A60000EFA04F725EA070501FA04F425430133B9
:102A7000082BEED106624562F0BD000010B51D4C7A
:102A8000E36803F4E063B3F5A06F08D020D8B3F592
:102A9000407F26D0B3F5806F26D0174BE36002232A
:102AA0001C46C4F10404A140C3F104040F23E34015
:102AB0001340124A0B431B011118DBB281F800339B
:102AC0004109012300F01F00834042F8213010BD6E
:102AD000B3F5C06F0BD0B3F5E06FDED10423002453
:102AE000DFE700230424DCE701230324D9E70323E1
:102AF0000124D6E700ED00E00005FA0500E100E062
:102B000021F06041034B21F07F0101439960BFF345
:102B10004F8F704700ED00E0830903F1804303F518
:102B2000043300F01F001968012282400A431A6032
:102B30007047830903F1804303F5043300F01F005D
:102B40001A680121814022EA01021A607047FFF7EA
:102B5000E3BFFFF7EEBF0000F0B55D4B89B0044660
:102B600004AD03F110061F46186859682A4603C2CF
:102B70000833B3421546F7D1386971686B4603C311
:102B800003C3544B5A6802F00C02082A44D1586817
:102B90005968DA6A0F01C0F383404FEAD27234D425
:102BA000002A30D102305A68D96AD60332D5DA6A9F
:102BB0004D0002F00F0254BF474948490132B1FBB2
:102BC000F2F250435A685968C1F302212031694436
:102BD000C2F3031211F8205C59682032C1F3C221FC
:102BE0006A442031694412F8102C11F8181C20FA9C
:102BF00002F222FA01F1062C63D8DFE804F0100F8C
:102C0000126415444D002130CDE70AB91130CAE7EE
:102C10003130C8E7324AD4E72F48D3E7104609B02D
:102C2000F0BD22FA05F0FAE7186BC00507D41B6B5C
:102C30002C4813F4803F2C4B08BF1846EFE7586828
:102C40001B6BC0F3813002284FEAD3730FD00328E7
:102C500014D0012806D00BB94808E0E70320B2FBE6
:102C6000F0F0DCE70BB98808D9E70520F7E71BB9D6
:102C70000620B1FBF0F0D2E70720F0E70BB9C80857
:102C8000CDE70920EBE71B6B13F0400F48F2120071
:102C900018BF4FF40040C2E71A6B920713D01A6BAB
:102CA00002F00302012ABAD01A6B02F00302022AD0
:102CB0000BD01B6B084803F00303032B18BF002045
:102CC000ADE70020ABE70846A9E74FF40040A6E7D0
:102CD000544000080010024000127A00006CDC0230
:102CE00000093D00003FAB01809FD50008B50C4BAB
:102CF00098420DD003F57443984210D140F20E3043
:102D0000FFF725FF40F20E30BDE80840FFF721BF76
:102D100040F21140FFF71BFF40F21140F4E708BDFD
:102D20000044004038B5134B984204460D4618D075
:102D300003F57443984216D10620FFF70DFF226871
:102D400012044FEA550310D503EB4003B3FBF5F132
:102D5000C1F3420321F00F010904090C0B43E360A6
:102D600038BD0220E9E70020E9E70344B3FBF5F3AF
:102D70009BB2F4E700440040036823F001030360C2
:102D8000036823F4C063036003680B430360704768
:102D9000036823F001030360036823F48053036096
:102DA00003680B4303607047036823F0010303606B
:102DB000436823F44053436043680B4343607047C8
:102DC000036843F0010303607047036823F00803BE
:102DD000036003680B4303607047036823F0040338
:102DE000036003680B4303607047836823F040036C
:102DF0008360836801F040011943816070478368F4
:102E000023F080038360836801F0800119438160AF
:102E100070478B0901F01F011858C84000F00100ED
:102E20007047026A01F01F0101238B4013430362C4
:102E30007047C1F3891310B51C588B0D1A58C1F394
:102E40000440012303FA00F0104006D001F01F01F6
:102E50008B40234214BF0120002010BD084B994233
:102E600006D1D0F8D03023F40043C0F8D0307047FA
:102E7000026AC1F3044101238B401343036270478C
:102E800009340F3408480068006880F308884FF060
:102E9000000080F3148862B661B6BFF34F8FBFF3B2
:102EA0006F8F00DF00BF000008ED00E0DFF80C00CE
:102EB000016841F4700101607047000088ED00E096
:102EC00000B583B0002301930F4B1B68B3F1FF3FA4
:102ED0000DD14FF0500383F31188BFF36F8FBFF311
:102EE0004F8F019B002BFCD003B05DF804FB4FF02B
:102EF000500383F31188BFF36F8FBFF34F8FEA2125
:102F00000248FDF79BFCE4E7540000207C420008E7
:102F10004FF0807340F8043C21F0010140F8081C98
:102F2000054B40F80C3C40F8202C6FF0020340F8B1
:102F3000243C4438704700BFC12E00080000000048
:102F4000074B19680868B0E8F04F80F30988BFF3B1
:102F50006F8F4FF0000080F311887047AFF300804F
:102F60009805002008B54FF0500383F31188BFF394
:102F70006F8FBFF34F8F0E4A136801331360012B1D
:102F800000D008BD4FF0E023D3F8043D13F0FF0F4D
:102F9000F7D04FF0500383F31188BFF36F8FBFF367
:102FA0004F8F40F2A9110348FDF748FCE9E700BF45
:102FB000540000207C42000808B50C4B1B683BB154
:102FC0000A4A1368013B13600BB983F3118808BDEB
:102FD0004FF0500383F31188BFF36F8FBFF34F8F10
:102FE0004FF4D8710248FDF729FCE9E754000020AE
:102FF0007C4200080000000000000000000000000B
:10300000EFF30980BFF36F8F154B1A681EF0100F96
:1030100008BF20ED108A20E9F04F10602DE909006B
:103020004FF0500080F31188BFF34F8FBFF36F8FC5
:10303000FEF7C4F94FF0000080F3118809BC19684D
:103040000868B0E8F04F1EF0100F08BFB0EC108A0F
:1030500080F30988BFF36F8F704700BFAFF3008024
:103060009805002008B54FF0500383F31188BFF393
:103070006F8FBFF34F8FFDF7D3FF28B14FF0E023E1
:103080004FF08052C3F8042D002383F3118808BD4C
:103090004FF0E022002313619361054B1B68054943
:1030A000A1FB03139B09013B536107231361704785
:1030B00050000020D34D621030B583B04FF0E023B4
:1030C000D3F8002D444B9A421AD04FF0E023D3F8A6
:1030D000002D424B9A4221D0414B1A78D2B2019234
:1030E000FF221A701B78DBB28DF803309DF8033095
:1030F00003F050033B4A13703B4B07221A6025E054
:103100004FF0500383F31188BFF36F8FBFF34F8FDE
:1031100040F231113548FDF791FBD6E74FF05003EF
:1031200083F31188BFF36F8FBFF34F8F4FF4997103
:103130002E48FDF783FBCFE72B4A1368013B136052
:103140009DF803305B00DBB28DF803309DF803304F
:1031500013F0800FF0D1244B1B68032B2ED1224A91
:1031600013681B02136003F4E0631360019BDBB27E
:103170001B4A13704FF0E024D4F8203D43F4700351
:10318000C4F8203DD4F8203D43F07043C4F8203DFE
:10319000FFF77EFF0025164B1D60FFF787FED4F872
:1031A000343F43F04043C4F8343FFFF76BFEFEF773
:1031B00005F9FFF785FE284603B030BD4FF05003F8
:1031C00083F31188BFF36F8FBFF34F8F4FF4B2714A
:1031D0000648FDF733FBC2E771C20F4170C20F41D1
:1031E00000E400E07C130020781300207C420008FB
:1031F0005400002003685A004CBF43F0004323F002
:1032000000431844704700BF2DE9F04759B301F15E
:10321000FF380546164647464FF0000A0AEB0701FD
:1032200001EBD171491005EBC1094846FFF7E2FFF8
:1032300088454FEAC104034610D004F10800B342A8
:10324000284407D8FFF7D6FF0138B04208D201F171
:10325000010AE3E78A4506D04F1EDFE7B042F9D8FE
:103260004846BDE8F0874FF000094846BDE8F087C2
:10327000012809D0022805D0044B00280CBF1846AD
:1032800000207047024870470248704741390008E3
:10329000513900084939000830B5224B83B0044643
:1032A0008D1E43B301A92846AFF30080F0B1019908
:1032B0002A46FFF7A9FF0146C0B1FFF79BFF4B6805
:1032C000A064012B2BD0002B01F1040025DBFFF7BC
:1032D00091FF002323650368E064002B12DBFFF7F6
:1032E00089FF03460020236103B030BD002309207D
:1032F000236103B030BD0C4B0C49C91AC9101846E4
:103300000191D5E7C3F30360FFF7B2FF031E0CBFC3
:1033100009200020236103B030BD0123DAE7002338
:103320000520E0E700000000104400089047000876
:103330000368DA0710B5044606D49B0700F1500075
:1033400009D5FCF719FF2368590709D51A070ED5C7
:10335000DB0613D510BDFCF707FF23685907F5D42A
:1033600004F1D800FCF710FF23681A07F0D404F525
:10337000AC70FCF711FF2368DB06EBD404F5EC70AE
:10338000BDE81040FCF74CBF0346006800B118448C
:10339000704700BF704700BF70B504460E46316CE1
:1033A0002046FFF779FF054688B9326C62612369D0
:1033B00032462146012098470828F0D0072806D138
:1033C0002846316CFFF7E6FF301DFCF7C1FE00F028
:1033D000D5FD00BF2DE9F04701F1040CC768D0F816
:1033E000188006469146BCE80F00ADF5767D03AC2B
:1033F0000FC4BCE80F000FC4BCE80F000FC49CE86A
:103400000F0002AD4FF0000E84E80F00C5F800E099
:1034100021E02B6C73614FF4F47229467CA800F014
:10342000FFFD33697CAA3146504698478A9BAB64BE
:103430004946CDE900588246334601203246B84716
:10344000814630BB4FF4F4727CA9284600F0E8FDB9
:10345000BAF1080F1AD1296C3046FFF71DFF09F1A8
:10346000090904465FFA89FA0028D2D0AB6BAB6435
:103470003246CDE9005833464AF010010120B847E2
:1034800038B920460DF5767DBDE8F087BAF1070F13
:1034900005D0092420460DF5767DBDE8F087484625
:1034A000296CFFF777FF03A8FCF752FEF0B5CB6B52
:1034B0000B6401F1040C0E460546BCE80F00FBB09E
:1034C00001AC0FC4BCE80F000FC4BCE80F000FC470
:1034D0009CE80F004FF0FF3784E80F00009706E0EC
:1034E0002B696A46294698470828044608D110994E
:1034F0002846FFF7D1FE0028F2D009207BB0F0BDAE
:103500006846FFF715FF062CF7D131462846FFF72E
:1035100043FF00BFC160D96B826119640022194664
:10352000FFF758BF70B5C66843690B64AEB903694D
:103530000A4604460D46014602209847072805D052
:1035400008280FD129462046FFF726FF3046296C70
:10355000FFF720FF281DFCF7FBFD0122FFF73AFFD4
:1035600000F00CFD00F00AFDC26822B1CA6B0A64CB
:103570000022FFF72FBFFFF799BF00BF052915D81D
:10358000DFE801F00A031403030501207047009AE5
:10359000436C13600020704743B90F2A06D800EB34
:1035A000820200205368009A13607047022070471F
:1035B00000B585B00A46002303A900911946FFF71C
:1035C000DDFF039805B05DF804FB00BF052915D8A1
:1035D000DFE801F00A031403030501207047009B94
:1035E0001B6843640020704743B90F2A06D8009B2C
:1035F00000EB82021B685360002070470220704776
:1036000010B584B0002303AC039200940A46194617
:10361000FFF7DCFF04B010BD70B5D36B136402F18B
:10362000040C05460C46BCE80F00ADF5107D0DF10D
:103630005C0EAEE80F00BCE80F00AEE80F00BCE87F
:103640000F00AEE80F009CE80F004FF0FF368EE849
:103650000F00169610E0FFF7D3FF214616A8A847E3
:10366000034616AA0820694683B9049B9847052893
:1036700006460CD0092809D026996846FFF70CFEAB
:1036800003460C216A4616A8002BE4D0092616A88A
:10369000FFF74EFE30460DF5107D70BD2DE9F04F61
:1036A0001646CA6C89B00D4652F8041B069200F00B
:1036B000030C002B79D00C0C8DF81D400904E4B2EA
:1036C000059102EB840202218DF81C10296DBCF1DA
:1036D000020F08BFAA6B11F0010809D005A93046F6
:1036E00000F0CEFA002856D1082009B0BDE8F08FCE
:1036F0001768002FF2D000F00801CDE90118E34669
:103700009A46BAF1020F4CD01788548802F1040986
:10371000AA6C24F001030F21304603EB0208FFF7E7
:1037200047FF80453BD827F0010202EB08038342A4
:1037300094BF00230123640004F0020407F0010792
:103740002743012F4ED0022F35D027BBBBF1000FEE
:1037500002D0002B40F0D38009F104021768002F3B
:10376000CFD105A93046DDF8088000F089FA90B97C
:10377000B8F1000FB8D00F213046FFF719FF0E2126
:1037800002463046FFF73CFF6C4A0F213046FFF7F8
:1037900037FF072000E0092009B0BDE8F08F0023C3
:1037A000C9E7546802F10809B2E7090205918DF8EA
:1037B0001D30032188E7D9F8004024F00048BBF110
:1037C000000F47D12BB1019B002B5CD0B8F1000F4B
:1037D00059D0002C01DA09F1040908F1010209EBC2
:1037E0008202BBE7BBF1000F1CD1C3B1D9F8043092
:1037F000D9F80020991C4FEAD272CCD005F15804B8
:103800000133049400F08E8009F10400FFF7BCFD41
:1038100004AB01462846AFF30080002859D109F1D6
:1038200008029BE70D213046FFF7C2FE2C6A844256
:10383000F5D1AB6A9945F2D14846FFF7DBFC0F2181
:1038400002463046FFF7DCFE2A4600213046FFF7ED
:10385000D7FE9EE70D213046FFF7AAFE2F6A87426A
:10386000B7D1AB6A9945B4D100240423C5E90B4311
:103870004B44C5F828806B63D9F80030A34258DB6D
:1038800001230293A9E705F15803CDF80CB009F123
:103890000407B34600241E460BE038460496FFF7A3
:1038A00073FD0022014604AB2846AFF300800437C5
:1038B000F8B9444504F10104EFD10D215846FFF752
:1038C00077FE049BC5F828900246C5E90823062028
:1038D00062E704460D213046FFF76AFE049E286227
:1038E000022C04BFEE6205F12C06C5E90969062029
:1038F00052E75E46D9F80040DDF80CB069E748466B
:10390000FFF778FC09F104030446AB632846AFF3E4
:10391000008000283FF43FAF22460F213046FFF7DA
:103920006FFE36E730460D21FFF742FE264628623D
:10393000DBE708F1010209EB82007EE700000000EE
:103940000023FFF7ABBE00BF0123FFF7A7BE00BFF8
:103950000223FFF7A3BE00BF2DE9F0410646C4B025
:103960001446052900F2D880DFE811F012002D007E
:10397000D6006C0091000600836B002C40F0CC80D8
:1039800053F8042B42648363002044B0BDE8F08107
:10399000002B40F0C180856B1FFA84FC012006F1EA
:1039A000040E00FA03F111EA0C0F2A4604D052F873
:1039B000041B4EF8231015460133102BF1D1A70438
:1039C000E2D4B563E0E7012B4FEA1447A4B200F05C
:1039D0008380052B40F0A08007EB0408B8F1200F8E
:1039E00000F29A800F2F40F29980002CCCD0026810
:1039F000500700F11881019302AD2846FCF7C8FB7F
:103A00004FEA440CA7F11000B16B019B0CF1FF3C95
:103A100005EBC0000CF1010C043801EB8C0251F8ED
:103A2000044B40F8044F9142F9D1012B00F0DE80A5
:103A30000F2FB16302D822A8FCF79EFB2846FCF7A3
:103A4000A3FBA1E7032B67D1A7B207EB1443102B0D
:103A50004FEA144460D80368190700F1BF8022AD13
:103A60002846FCF7BBFB7A00B06B05EBC404531E81
:103A700042B1011B625844F8042B013B5A1CF9D196
:103A800000EBC700B0632846FCF786FB7CE7002B01
:103A900042D1102C40D80368DD0600F1978022AD9A
:103AA0002846FCF7C7FBB76B294600234FF0010CF3
:103AB0000CFA03F22242384603F1010303D050F816
:103AC000042B0A600746042B01F10401F0D1B7630F
:103AD0002846FCF7A5FB57E73A19102A1CD8102FE7
:103AE0001AD00268D00708D5304622F0030240F809
:103AF000502B0193FCF73CFB019B019322AD284620
:103B0000FCF736FBB26B019B002C58D10432B26338
:103B10002846FCF729FB37E7022036E7B8F1100FFB
:103B2000026865D9D40772D522F0010242F0020280
:103B300040F8502B0193FCF723FB3268019B12F0F5
:103B4000040F66D122AD28460193FCF719FB02A8A9
:103B5000FCF71EFBC7F110014900B26B019BA8F1F5
:103B6000100C4C1E05EBC7000134043802EB840135
:103B700052F8044B40F8044F8A42F9D1BCF1000FCF
:103B80005AD0102F384638BF10204FEA4C0C10384E
:103B900002AD0CF1FF3C05EBC0003BE7304622F0E4
:103BA000010242F0020240F8502B22AD0193FCF7D3
:103BB000E7FA2846FCF7E4FAB26B24B3019B6400F1
:103BC000013C05EBC7004FF0000CCDE723F01003DC
:103BD000036000F5EC70FCF72DFB60E723F00803B1
:103BE000036000F5AC70FCF7F9FA38E722AD8DE719
:103BF000D107D3D422AD28460193FCF7C1FAB26BAA
:103C0000019B002CDBD12846FCF7B6FABCE6540732
:103C100098D5304622F0040240F8D82B0193FCF7E7
:103C2000B7FA019B8EE7304622F0040240F8D82B09
:103C30000193FCF7ADFADFE6012B3FF467AF0F2FDE
:103C4000B2633FF6A1AEDEE7027A03467AB9427A62
:103C5000A2B14168013A10B44272086803220C1DF7
:103C60001A7202025C60000E10BC1A607047006895
:103C7000013A1A7202021A60000E7047B0207047B3
:103C80002DE9F043064685B00D464FF00008284662
:103C9000FFF7DAFFB028044600F01C8107065BD569
:103CA00000F0F003A02B1AD030D8802B00F08280D7
:103CB000902B27D100F00D030D2B23D002AF002352
:103CC00000F00F02194600973046FFF757FC00231B
:103CD00000970D2219463046FFF778FCD7E7C3431B
:103CE00003F007034FF47F621A41010702F47F6279
:103CF00001D542F48042002319463046FFF72CFEDE
:103D00000028C4D0092005B0BDE8F083B02B68D0EE
:103D1000C02B3DD1C62800F0CA80C72800F0DF8044
:103D200000F0F803C02B00F0EC80C82800F0F7800A
:103D3000C928E7D12846FFF787FF020300F00F00EC
:103D400002F4702201300243012105233046FFF7BF
:103D500003FE00289BD0D5E78300DBB21F1D0DF1C9
:103D6000080900231946CDF800900D223046FFF7D0
:103D700005FC029BCDF8009060064CBFDF1BFF18CE
:103D800000230D22194630460297FFF71FFC7EE7FD
:103D900000F0F803D02BB5D100F007020132052363
:103DA00042F4002201213046FFF7D6FD00283FF4FF
:103DB0006EAFA7E72846FFF747FF24022043B0F580
:103DC000004F9FD004010023A2B219463046FFF7EE
:103DD000C3FD002896D114F4004F18BF4FF001081E
:103DE00055E7A0F1B103042B00F2B580DFE803F042
:103DF0005529160C030003AA0023009219460D2230
:103E00003046FFF7BBFB42E700231A460521304648
:103E1000FFF7A2FD00283FF43AAF73E72846FFF70B
:103E200013FF020300F00F00013002F4702201239F
:103E3000024319463046FFF78FFD00283FF427AFB5
:103E400060E700230DF108090D221946CDF8009016
:103E50003046FFF793FB2846FFF7F6FE0206029C6A
:103E60004FF002070BD500F07F00B840044428460D
:103E70000294FFF7E9FE030607F10707F3D4B84001
:103E8000002304F501740444CDF800900D22194676
:103E900030460294FFF79AFBF9E62846FFF7D4FE76
:103EA000431EDBB20E2B02467FF625AF2AE72846DB
:103EB000FFF7CAFE020300F00F00013002F4702287
:103EC0000323024319463046FFF746FD00283FF41E
:103ED000DEAE17E7B8F1000F2DD0002013E728461B
:103EE000FFF7B2FE431EDBB20E2B02463FF60AAFCF
:103EF000002304213046FFF72FFD00283FF4C7AE12
:103F000000E700F00F020132032342F42022194699
:103F10003046FFF721FD00283FF4B9AEF2E628460F
:103F2000FFF792FE00F0F00200F00F0310320133B1
:103F300043EA023208E702AC4346414600940E22AF
:103F40003046FFF71BFB0F220094434641463046A4
:103F5000FFF73CFBC1E700F0FC03B42B3FF4D2AE0B
:103F600000F007020132012342F4002219463046D4
:103F7000FFF7F2FC00283FF48AAEC3E608B506203E
:103F800000F02CF80120FCF70DFB1F2938B5054681
:103F90000C4604D9162303604FF0FF3038BDC26BC6
:103FA00012B152F821304BB9284600F031F82246C0
:103FB00001462846BDE8384000F018B8012B0AD069
:103FC000591C03D1162303600120E7E7002142F8C2
:103FD0002410204698470020E0E70000024B0146ED
:103FE0001868FFF7D2BF00BF0000002038B5074DAA
:103FF00000230446084611462B60FCF7CBFA431C0D
:1040000002D12B6803B1236038BD00BFAC01002092
:10401000FCF7BEBA014B1868704700BF00000020D3
:104020000A44914200F1FF3300D1704710B511F8F6
:10403000014B03F8014F9142F9D110BDF8B500BF13
:10404000F8BC08BC9E467047F8B500BFF8BC08BC79
:044050009E467047D1
:104054000000000000000000010203040607080934
:1040640000000000010203040A5B4552524F525DF6
:1040740025733A20537461636B206F766572666CA6
:104084006F773A2025730A0D0A0000000A5B455237
:10409400524F525D25733A204D616C6C6F632066FC
:1040A40061696C65640D0A00257320737461727410
:1040B4000A0000005B25735D3A20256420730A0022
:1040C4005561727420746573740A000048656C6CE1
:1040D4006F20576F726C640D0A0000005461736B9B
:1040E400203100005461736B20320000417373650A
:1040F4007274206661696C65643A2066696C652037
:104104002573206F6E206C696E652025640D0A0D81
:104114000A000000473A2F6D63752F474433325F1E
:104124004672656552544F535F74656D706C657467
:10413400652F536F757263652F4D6964646C657781
:10414400617265732F4672656552544F532F536FD6
:10415400757263652F7461736B732E6300000000C6
:1041640049444C4500000000473A2F6D63752F47C2
:104174004433325F4672656552544F535F74656DC4
:10418400706C6574652F536F757263652F4D696428
:10419400646C6577617265732F4672656552544F1E
:1041A400532F536F757263652F74696D6572732E27
:1041B40063000000546D722053766300473A2F6DFC
:1041C40063752F474433325F4672656552544F53CB
:1041D4005F74656D706C6574652F536F757263657C
:1041E4002F4D6964646C6577617265732F467265DF
:1041F4006552544F532F536F757263652F706F72EE
:104204007461626C652F4D656D4D616E672F6865D5
:1042140061705F342E630000473A2F6D63752F473A
:104224004433325F4672656552544F535F74656D13
:10423400706C6574652F536F757263652F4D696477
:10424400646C6577617265732F4672656552544F6D
:10425400532F536F757263652F71756575652E6382
:1042640000000000284E554C4C2900005465726D26
:10427400696E616C00000000473A2F6D63752F472B
:104284004433325F4672656552544F535F74656DB3
:10429400706C6574652F536F757263652F4D696417
:1042A400646C6577617265732F4672656552544F0D
:1042B400532F536F757263652F706F727461626CE4
:1042C400652F4743432F41524D5F434D34462F7072
:1042D4006F72742E63000000764170706C696361C4
:1042E40074696F6E4D616C6C6F634661696C656473
:1042F400486F6F6B00000000764170706C696361F9
:1043040074696F6E537461636B4F766572666C6F1C
:1043140077486F6F6B0000000F00000030313233BC
:1043240034353637383941424344454600000000AD
:1043340000005454522052454747455300000000A2
:1043440008B10181B0B000840000000008B101810F
:10435400B0B000840000000008B10181B0B0008456
:104364000000000008B10181B0B00084000000002A
:1043740008B10181B0B000840000000008B10181DF
:10438400B0B000840000000008B10181B0B0008426
:104394000000000008B10181B0B0008400000000FA
:1043A40008B10181B0B000840000000008B10181AF
:1043B400B0B000840000000008B10181B0B00084F6
:1043C4000000000084010181B00EB1000000000073
:1043D40008B10181B0B000840000000008B101817F
:1043E400B0B000840000000008B10181B0B00084C6
:1043F4000000000008B10181B0B00084000000009A
:0C44040008B10181B0B00084000000008D
:10441000ECBEFF7F01000000D8BFFF7FB0B0B080CE
:1044200054C0FF7F20FFFF7F6CC0FF7F24FFFF7F12
:1044300080C0FF7FB0B0B08084C0FF7FB0AA018091
:10444000C0C0FF7F00840280DCC0FF7FB0A8018075
:1044500040C1FF7FB0B0B0803CC1FF7F00FFFF7F55
:1044600044C1FF7F04FFFF7F48C1FF7F01000000C0
:1044700094C1FF7FB0B0B08000C2FF7FF8FEFF7F25
:1044800000C2FF7FB0A80180B4C3FF7FF4FEFF7FAE
:10449000C0C3FF7FF8FEFF7F14C4FF7FB0B0A880C9
:1044A0006CC4FF7FB0A90880FCC4FF7FECFEFF7FD7
:1044B0001CC5FF7FA908B18060C5FF7FB0B0AA808E
:1044C000BCC5FF7FB0B0B080DCC5FF7FB0B0AE80B0
:1044D00084C6FF7FA908B180E4C6FF7FB0B0A88082
:1044E00034C8FF7FC0FEFF7F54C8FF7FB0B0AA80F2
:1044F000FCC8FF7FB0AD0680B8C9FF7FB0AD0480B7
:1045000018CAFF7FB0A80780C4CAFF7FB0B0B080D0
:10451000D8CAFF7FB0B0A88008CBFF7FAB08B180BE
:1045200070CCFF7FA908B18094CEFF7FB0B0A88087
:1045300098CFFF7FA908B180D4CFFF7FB0B0AA8009
:1045400030D0FF7FA908B18024D1FF7FB0B0B08008
:1045500034D1FF7FAB08B180CCD1FF7FB0B0B08049
:104560001CD2FF7F4CFEFF7F5CD2FF7FB0B0AA80E1
:10457000BCD2FF7F48FEFF7FE4D2FF7FA908B18055
:1045800008D3FF7FB0AA018074D3FF7FB0A9048055
:104590006CD4FF7F008402807CD4FF7FB0A90280AE
:1045A000D4D4FF7FB0A8078040D5FF7FB0B0B080E3
:1045B00090D5FF7FB0B0A080ECD5FF7FAB08B18075
:1045C00008D7FF7FA908B180A8D7FF7FB0B0B0801F
:1045D000BCD7FF7FB0B0A180E6D7FF7FB0B0B0807E
:1045E00004D8FF7FB0B0A8803AD8FF7FA908B18077
:1045F00068D9FF7FB0B0A8807CD9FF7FB0AB0480C2
:104600008CDBFF7FB0B0AA80D6DBFF7FB0B0A88084
:1046100010DCFF7FAF08B180E8DCFF7FB0AE018027
:10462000CCDDFF7FB0AB1880C0DFFF7F9CFDFF7F3C
:10463000D6DFFF7FB0B0B080E6DFFF7FAD08B1808E
:104640008CE0FF7FB0B0A880F0E0FF7FAB08B180C6
:104650008CE1FF7FA908B1809CE1FF7F78FDFF7F9F
:104660009CE1FF7FB0B0B08030E2FF7FA908B1804D
:104670009CE2FF7FB0B0B080F0E2FF7FB0B0AD80D1
:104680002CE3FF7FB0B0AB80F4E3FF7FB0B0A88035
:1046900070E4FF7FB0B0B080C0E4FF7FB0AB0880B3
:1046A0004CE6FF7F3CFDFF7F7CE6FF7FA908B180E1
:1046B000C8E6FF7FB0B0B0807AE7FF7FB0B0A880D7
:1046C0009CE7FF7FB0B0B080F8E7FF7F00840280F6
:1046D00040E8FF7FB0B0B0808CE8FF7F10FDFF7F27
:1046E000D8E8FF7F14FDFF7F18E9FF7FB0B0B080EE
:1046F00074E9FF7F10FDFF7F98E9FF7FB0B0B080C5
:10470000B8E9FF7FB0A90280ECEAFF7F010000005A
:1047100088EBFF7FB0A9028018ECFF7FB0B0A880C3
:1047200068ECFF7F0100000070ECFF7FB0B0AA8052
:10473000A4ECFF7FAE75B28074EDFF7FAB3F3A8093
:10474000D4EDFF7F01000000DCEDFF7FB0B0AA8058
:1047500018EEFF7F01000000C0EEFF7FAA0FB280BD
:104760003CEFFF7FB0AF0880D8F1FF7F0100000071
:10477000E8F1FF7FAC3F0380D0F4FF7F0100000031
:1047800000F5FF7FB0AD0480F4F7FF7F010000006B
:0447900075030008A5
:044794004D030008C9
:10479800040000200000000074000020DC0000205D
:1047A800440100200000000000000000000000009C
:1047B80000000000000000000000000000000000F1
:1047C80000000000000000000000000000000000E1
:1047D80000000000000000000000000000000000D1
:0847E80000A24A04AAAAAAAA31
:04000005080005B139
:00000001FF
